{
    "_format": "hh-sol-artifact-1",
    "contractName": "GmOracleProvider",
    "sourceName": "contracts/oracle/GmOracleProvider.sol",
    "abi": [
        {
            "inputs": [
                {
                    "internalType": "contract RoleStore",
                    "name": "_roleStore",
                    "type": "address"
                },
                {
                    "internalType": "contract DataStore",
                    "name": "_dataStore",
                    "type": "address"
                },
                {
                    "internalType": "contract OracleStore",
                    "name": "_oracleStore",
                    "type": "address"
                }
            ],
            "stateMutability": "nonpayable",
            "type": "constructor"
        },
        {
            "inputs": [
                {
                    "internalType": "uint256",
                    "name": "index",
                    "type": "uint256"
                },
                {
                    "internalType": "string",
                    "name": "label",
                    "type": "string"
                }
            ],
            "name": "DuplicatedIndex",
            "type": "error"
        },
        {
            "inputs": [
                {
                    "internalType": "uint256",
                    "name": "signerIndex",
                    "type": "uint256"
                }
            ],
            "name": "GmEmptySigner",
            "type": "error"
        },
        {
            "inputs": [
                {
                    "internalType": "uint256",
                    "name": "minOracleBlockNumber",
                    "type": "uint256"
                },
                {
                    "internalType": "uint256",
                    "name": "currentBlockNumber",
                    "type": "uint256"
                }
            ],
            "name": "GmInvalidBlockNumber",
            "type": "error"
        },
        {
            "inputs": [
                {
                    "internalType": "uint256",
                    "name": "minOracleBlockNumber",
                    "type": "uint256"
                },
                {
                    "internalType": "uint256",
                    "name": "maxOracleBlockNumber",
                    "type": "uint256"
                }
            ],
            "name": "GmInvalidMinMaxBlockNumber",
            "type": "error"
        },
        {
            "inputs": [
                {
                    "internalType": "uint256",
                    "name": "oracleSigners",
                    "type": "uint256"
                },
                {
                    "internalType": "uint256",
                    "name": "maxOracleSigners",
                    "type": "uint256"
                }
            ],
            "name": "GmMaxOracleSigners",
            "type": "error"
        },
        {
            "inputs": [
                {
                    "internalType": "address",
                    "name": "token",
                    "type": "address"
                },
                {
                    "internalType": "uint256",
                    "name": "price",
                    "type": "uint256"
                },
                {
                    "internalType": "uint256",
                    "name": "prevPrice",
                    "type": "uint256"
                }
            ],
            "name": "GmMaxPricesNotSorted",
            "type": "error"
        },
        {
            "inputs": [
                {
                    "internalType": "uint256",
                    "name": "signerIndex",
                    "type": "uint256"
                },
                {
                    "internalType": "uint256",
                    "name": "maxSignerIndex",
                    "type": "uint256"
                }
            ],
            "name": "GmMaxSignerIndex",
            "type": "error"
        },
        {
            "inputs": [
                {
                    "internalType": "uint256",
                    "name": "oracleSigners",
                    "type": "uint256"
                },
                {
                    "internalType": "uint256",
                    "name": "minOracleSigners",
                    "type": "uint256"
                }
            ],
            "name": "GmMinOracleSigners",
            "type": "error"
        },
        {
            "inputs": [
                {
                    "internalType": "address",
                    "name": "token",
                    "type": "address"
                },
                {
                    "internalType": "uint256",
                    "name": "price",
                    "type": "uint256"
                },
                {
                    "internalType": "uint256",
                    "name": "prevPrice",
                    "type": "uint256"
                }
            ],
            "name": "GmMinPricesNotSorted",
            "type": "error"
        },
        {
            "inputs": [
                {
                    "internalType": "uint256",
                    "name": "minPrice",
                    "type": "uint256"
                },
                {
                    "internalType": "uint256",
                    "name": "maxPrice",
                    "type": "uint256"
                }
            ],
            "name": "InvalidGmMedianMinMaxPrice",
            "type": "error"
        },
        {
            "inputs": [
                {
                    "internalType": "address",
                    "name": "token",
                    "type": "address"
                }
            ],
            "name": "InvalidGmOraclePrice",
            "type": "error"
        },
        {
            "inputs": [
                {
                    "internalType": "uint256",
                    "name": "index",
                    "type": "uint256"
                },
                {
                    "internalType": "string",
                    "name": "label",
                    "type": "string"
                }
            ],
            "name": "MaskIndexOutOfBounds",
            "type": "error"
        },
        {
            "inputs": [],
            "name": "MAX_SIGNERS",
            "outputs": [
                {
                    "internalType": "uint256",
                    "name": "",
                    "type": "uint256"
                }
            ],
            "stateMutability": "view",
            "type": "function"
        },
        {
            "inputs": [],
            "name": "MAX_SIGNER_INDEX",
            "outputs": [
                {
                    "internalType": "uint256",
                    "name": "",
                    "type": "uint256"
                }
            ],
            "stateMutability": "view",
            "type": "function"
        },
        {
            "inputs": [],
            "name": "SIGNER_INDEX_LENGTH",
            "outputs": [
                {
                    "internalType": "uint256",
                    "name": "",
                    "type": "uint256"
                }
            ],
            "stateMutability": "view",
            "type": "function"
        },
        {
            "inputs": [],
            "name": "dataStore",
            "outputs": [
                {
                    "internalType": "contract DataStore",
                    "name": "",
                    "type": "address"
                }
            ],
            "stateMutability": "view",
            "type": "function"
        },
        {
            "inputs": [
                {
                    "internalType": "address",
                    "name": "token",
                    "type": "address"
                },
                {
                    "internalType": "bytes",
                    "name": "data",
                    "type": "bytes"
                }
            ],
            "name": "getOraclePrice",
            "outputs": [
                {
                    "components": [
                        {
                            "internalType": "address",
                            "name": "token",
                            "type": "address"
                        },
                        {
                            "internalType": "uint256",
                            "name": "min",
                            "type": "uint256"
                        },
                        {
                            "internalType": "uint256",
                            "name": "max",
                            "type": "uint256"
                        },
                        {
                            "internalType": "uint256",
                            "name": "timestamp",
                            "type": "uint256"
                        },
                        {
                            "internalType": "address",
                            "name": "provider",
                            "type": "address"
                        }
                    ],
                    "internalType": "struct OracleUtils.ValidatedPrice",
                    "name": "",
                    "type": "tuple"
                }
            ],
            "stateMutability": "view",
            "type": "function"
        },
        {
            "inputs": [],
            "name": "oracleStore",
            "outputs": [
                {
                    "internalType": "contract OracleStore",
                    "name": "",
                    "type": "address"
                }
            ],
            "stateMutability": "view",
            "type": "function"
        },
        {
            "inputs": [],
            "name": "roleStore",
            "outputs": [
                {
                    "internalType": "contract RoleStore",
                    "name": "",
                    "type": "address"
                }
            ],
            "stateMutability": "view",
            "type": "function"
        }
    ],
    "bytecode": "0x60e060405234801561001057600080fd5b5060405161131f38038061131f83398101604081905261002f91610064565b6001600160a01b0392831660805290821660a0521660c0526100b1565b6001600160a01b038116811461006157600080fd5b50565b60008060006060848603121561007957600080fd5b83516100848161004c565b60208501519093506100958161004c565b60408501519092506100a68161004c565b809150509250925092565b60805160a05160c0516112246100fb6000396000818160dc015261086a01526000818161015501528181610269015281816105e1015261069e0152600061012601526112246000f3fe608060405234801561001057600080fd5b506004361061006d5760003560e01c8063377bbdaf14610072578063392bf7f6146100d75780633b9f9bd21461010b5780634a4a7b041461012157806359ecd65714610148578063660d0d6714610150578063b74da61d14610177575b600080fd5b610085610080366004610c46565b610180565b6040516100ce919081516001600160a01b039081168252602080840151908301526040808401519083015260608084015190830152608092830151169181019190915260a00190565b60405180910390f35b6100fe7f000000000000000000000000000000000000000000000000000000000000000081565b6040516100ce9190610cd8565b610113601081565b6040519081526020016100ce565b6100fe7f000000000000000000000000000000000000000000000000000000000000000081565b610113610577565b6100fe7f000000000000000000000000000000000000000000000000000000000000000081565b61011361010081565b6101c46040518060a0016040528060006001600160a01b0316815260200160008152602001600081526020016000815260200160006001600160a01b031681525090565b6000828060200190518101906101da9190610e64565b905060006101eb8260200151610593565b905081608001518260600151111561022b578160600151826080015160405163b8aaa45560e01b8152600401610222929190610f6c565b60405180910390fd5b61023361097a565b82608001511061026557816080015161024a61097a565b60405163ee6e8ecf60e01b8152600401610222929190610f6c565b60007f00000000000000000000000000000000000000000000000000000000000000006001600160a01b031663a6ed563e61029f886109f6565b6040518263ffffffff1660e01b81526004016102bd91815260200190565b602060405180830381865afa1580156102da573d6000803e3d6000fd5b505050506040513d601f19601f820116820180604052508101906102fe9190610f7a565b905060005b825181101561048e57801561047c578360e00151818151811061032857610328610f93565b60200260200101518460e001516001836103429190610fbf565b8151811061035257610352610f93565b602002602001015111156103c557868460e00151828151811061037757610377610f93565b60200260200101518560e001516001846103919190610fbf565b815181106103a1576103a1610f93565b602002602001015160405163cc7bbd5b60e01b815260040161022293929190610fd2565b83610100015181815181106103dc576103dc610f93565b60200260200101518461010001516001836103f79190610fbf565b8151811061040757610407610f93565b6020026020010151111561047c5786846101000151828151811061042d5761042d610f93565b60200260200101518561010001516001846104489190610fbf565b8151811061045857610458610f93565b60200260200101516040516307c42f2960e11b815260040161022293929190610fd2565b8061048681610ff3565b915050610303565b5060008360400151600a6104a291906110f0565b6104af8560e00151610a71565b6104b99190611103565b905060008460400151600a6104ce91906110f0565b6104dc866101000151610a71565b6104e69190611103565b90508115806104f3575080155b15610513578760405163a54d433960e01b81526004016102229190610cd8565b8082111561053857818160405163993417d560e01b8152600401610222929190610f6c565b6040805160a080820183526001600160a01b038b1682526020820194909452908101919091529301516060840152505030608082015290505b92915050565b60016105866010610100611130565b6105909190610fbf565b81565b6060600061ffff83166001600160401b038111156105b3576105b3610bb0565b6040519080825280602002602001820160405280156105dc578160200160208202803683370190505b5090507f00000000000000000000000000000000000000000000000000000000000000006001600160a01b031663bd02d0f560405160200161061d90611144565b604051602081830303815290604052805190602001206040518263ffffffff1660e01b815260040161065191815260200190565b602060405180830381865afa15801561066e573d6000803e3d6000fd5b505050506040513d601f19601f820116820180604052508101906106929190610f7a565b8151101561076a5780517f00000000000000000000000000000000000000000000000000000000000000006001600160a01b031663bd02d0f56040516020016106da90611144565b604051602081830303815290604052805190602001206040518263ffffffff1660e01b815260040161070e91815260200190565b602060405180830381865afa15801561072b573d6000803e3d6000fd5b505050506040513d601f19601f8201168201806040525081019061074f9190610f7a565b60405163dc2a99e760e01b8152600401610222929190610f6c565b60016107796010610100611130565b6107839190610fbf565b815111156107c1578051600161079c6010610100611130565b6107a69190610fbf565b6040516318f6896560e31b8152600401610222929190610f6c565b60408051602081019091526000815260005b825181101561097157600061ffff6107ec836010611103565b6107f7906010611170565b87901c16905061010081106108255780610100604051635b1250e760e01b8152600401610222929190610f6c565b60408051808201909152600b81526a0e6d2cedccae492dcc8caf60ab1b60208201526108549084908390610b26565b604051631fff7f2760e11b8152600481018290527f00000000000000000000000000000000000000000000000000000000000000006001600160a01b031690633ffefe4e90602401602060405180830381865afa1580156108b9573d6000803e3d6000fd5b505050506040513d601f19601f820116820180604052508101906108dd9190611183565b8483815181106108ef576108ef610f93565b60200260200101906001600160a01b031690816001600160a01b03168152505060006001600160a01b031684838151811061092c5761092c610f93565b60200260200101516001600160a01b03160361095e57604051636c855f0360e11b815260048101829052602401610222565b508061096981610ff3565b9150506107d3565b50909392505050565b6000610984610b81565b156109f15760646001600160a01b031663a3b1b31d6040518163ffffffff1660e01b8152600401602060405180830381865afa1580156109c8573d6000803e3d6000fd5b505050506040513d601f19601f820116820180604052508101906109ec9190610f7a565b905090565b504390565b6000604051602001610a27906020808252600b908201526a4f5241434c455f5459504560a81b604082015260600190565b60408051601f198184030181528282528051602091820120908301526001600160a01b03841690820152606001604051602081830303815290604052805190602001209050919050565b600060028251610a8191906111a0565b600103610ab6578160028351610a979190611130565b81518110610aa757610aa7610f93565b60200260200101519050919050565b600282600160028551610ac99190611130565b610ad39190610fbf565b81518110610ae357610ae3610f93565b60200260200101518360028551610afa9190611130565b81518110610b0a57610b0a610f93565b6020026020010151610b1c9190611170565b6105719190611130565b6101008210610b4c578181604051630a1f10ab60e11b81526004016102229291906111b4565b82516001831b90811615610b7757828260405163d406473760e01b81526004016102229291906111b4565b8351179092525050565b600061a4b14614806109ec5750504662066eee1490565b6001600160a01b0381168114610bad57600080fd5b50565b634e487b7160e01b600052604160045260246000fd5b60405161014081016001600160401b0381118282101715610be957610be9610bb0565b60405290565b604051601f8201601f191681016001600160401b0381118282101715610c1757610c17610bb0565b604052919050565b60006001600160401b03821115610c3857610c38610bb0565b50601f01601f191660200190565b60008060408385031215610c5957600080fd5b8235610c6481610b98565b915060208301356001600160401b03811115610c7f57600080fd5b8301601f81018513610c9057600080fd5b8035610ca3610c9e82610c1f565b610bef565b818152866020838501011115610cb857600080fd5b816020840160208301376000602083830101528093505050509250929050565b6001600160a01b0391909116815260200190565b8051610cf781610b98565b919050565b60006001600160401b03821115610d1557610d15610bb0565b5060051b60200190565b600082601f830112610d3057600080fd5b81516020610d40610c9e83610cfc565b82815260059290921b84018101918181019086841115610d5f57600080fd5b8286015b84811015610d7a5780518352918301918301610d63565b509695505050505050565b60005b83811015610da0578181015183820152602001610d88565b50506000910152565b600082601f830112610dba57600080fd5b81516020610dca610c9e83610cfc565b82815260059290921b84018101918181019086841115610de957600080fd5b8286015b84811015610d7a5780516001600160401b03811115610e0c5760008081fd5b8701603f81018913610e1e5760008081fd5b848101516040610e30610c9e83610c1f565b8281528b82848601011115610e455760008081fd5b610e5483898301848701610d85565b8652505050918301918301610ded565b600060208284031215610e7657600080fd5b81516001600160401b0380821115610e8d57600080fd5b908301906101408286031215610ea257600080fd5b610eaa610bc6565b610eb383610cec565b81526020830151602082015260408301516040820152606083015160608201526080830151608082015260a083015160a082015260c083015160c082015260e083015182811115610f0357600080fd5b610f0f87828601610d1f565b60e0830152506101008084015183811115610f2957600080fd5b610f3588828701610d1f565b8284015250506101208084015183811115610f4f57600080fd5b610f5b88828701610da9565b918301919091525095945050505050565b918252602082015260400190565b600060208284031215610f8c57600080fd5b5051919050565b634e487b7160e01b600052603260045260246000fd5b634e487b7160e01b600052601160045260246000fd5b8181038181111561057157610571610fa9565b6001600160a01b039390931683526020830191909152604082015260600190565b60006001820161100557611005610fa9565b5060010190565b600181815b8085111561104757816000190482111561102d5761102d610fa9565b8085161561103a57918102915b93841c9390800290611011565b509250929050565b60008261105e57506001610571565b8161106b57506000610571565b8160018114611081576002811461108b576110a7565b6001915050610571565b60ff84111561109c5761109c610fa9565b50506001821b610571565b5060208310610133831016604e8410600b84101617156110ca575081810a610571565b6110d4838361100c565b80600019048211156110e8576110e8610fa9565b029392505050565b60006110fc838361104f565b9392505050565b808202811582820484141761057157610571610fa9565b634e487b7160e01b600052601260045260246000fd5b60008261113f5761113f61111a565b500490565b6020808252601290820152714d494e5f4f5241434c455f5349474e45525360701b604082015260600190565b8082018082111561057157610571610fa9565b60006020828403121561119557600080fd5b81516110fc81610b98565b6000826111af576111af61111a565b500690565b82815260406020820152600082518060408401526111d9816060850160208701610d85565b601f01601f191691909101606001939250505056fea26469706673582212209bb5fcffa672e144b01c760d3a9055813bf098fdbf800b0532eb6bdceaccc66b64736f6c63430008120033",
    "linkReferences": {},
    "deployedLinkReferences": {}
}