{
    "_format": "hh-sol-artifact-1",
    "contractName": "Oracle",
    "sourceName": "contracts/oracle/Oracle.sol",
    "abi": [
        {
            "inputs": [
                {
                    "internalType": "contract RoleStore",
                    "name": "_roleStore",
                    "type": "address"
                },
                {
                    "internalType": "contract DataStore",
                    "name": "_dataStore",
                    "type": "address"
                },
                {
                    "internalType": "contract EventEmitter",
                    "name": "_eventEmitter",
                    "type": "address"
                },
                {
                    "internalType": "contract AggregatorV2V3Interface",
                    "name": "_sequencerUptimeFeed",
                    "type": "address"
                }
            ],
            "stateMutability": "nonpayable",
            "type": "constructor"
        },
        {
            "inputs": [
                {
                    "internalType": "address",
                    "name": "token",
                    "type": "address"
                },
                {
                    "internalType": "uint256",
                    "name": "timestamp",
                    "type": "uint256"
                },
                {
                    "internalType": "uint256",
                    "name": "heartbeatDuration",
                    "type": "uint256"
                }
            ],
            "name": "ChainlinkPriceFeedNotUpdated",
            "type": "error"
        },
        {
            "inputs": [
                {
                    "internalType": "address",
                    "name": "token",
                    "type": "address"
                }
            ],
            "name": "EmptyChainlinkPriceFeedMultiplier",
            "type": "error"
        },
        {
            "inputs": [
                {
                    "internalType": "address",
                    "name": "token",
                    "type": "address"
                }
            ],
            "name": "EmptyPrimaryPrice",
            "type": "error"
        },
        {
            "inputs": [
                {
                    "internalType": "address",
                    "name": "token",
                    "type": "address"
                },
                {
                    "internalType": "int256",
                    "name": "price",
                    "type": "int256"
                }
            ],
            "name": "InvalidFeedPrice",
            "type": "error"
        },
        {
            "inputs": [
                {
                    "internalType": "address",
                    "name": "token",
                    "type": "address"
                },
                {
                    "internalType": "uint256",
                    "name": "min",
                    "type": "uint256"
                },
                {
                    "internalType": "uint256",
                    "name": "max",
                    "type": "uint256"
                }
            ],
            "name": "InvalidMinMaxForPrice",
            "type": "error"
        },
        {
            "inputs": [
                {
                    "internalType": "address",
                    "name": "provider",
                    "type": "address"
                }
            ],
            "name": "InvalidOracleProvider",
            "type": "error"
        },
        {
            "inputs": [
                {
                    "internalType": "address",
                    "name": "provider",
                    "type": "address"
                },
                {
                    "internalType": "address",
                    "name": "expectedProvider",
                    "type": "address"
                }
            ],
            "name": "InvalidOracleProviderForToken",
            "type": "error"
        },
        {
            "inputs": [
                {
                    "internalType": "uint256",
                    "name": "tokensLength",
                    "type": "uint256"
                },
                {
                    "internalType": "uint256",
                    "name": "dataLength",
                    "type": "uint256"
                }
            ],
            "name": "InvalidOracleSetPricesDataParam",
            "type": "error"
        },
        {
            "inputs": [
                {
                    "internalType": "uint256",
                    "name": "tokensLength",
                    "type": "uint256"
                },
                {
                    "internalType": "uint256",
                    "name": "providersLength",
                    "type": "uint256"
                }
            ],
            "name": "InvalidOracleSetPricesProvidersParam",
            "type": "error"
        },
        {
            "inputs": [
                {
                    "internalType": "uint256",
                    "name": "range",
                    "type": "uint256"
                },
                {
                    "internalType": "uint256",
                    "name": "maxRange",
                    "type": "uint256"
                }
            ],
            "name": "MaxOracleTimestampRangeExceeded",
            "type": "error"
        },
        {
            "inputs": [
                {
                    "internalType": "uint256",
                    "name": "oracleTimestamp",
                    "type": "uint256"
                },
                {
                    "internalType": "uint256",
                    "name": "currentTimestamp",
                    "type": "uint256"
                }
            ],
            "name": "MaxPriceAgeExceeded",
            "type": "error"
        },
        {
            "inputs": [
                {
                    "internalType": "address",
                    "name": "token",
                    "type": "address"
                },
                {
                    "internalType": "uint256",
                    "name": "price",
                    "type": "uint256"
                },
                {
                    "internalType": "uint256",
                    "name": "refPrice",
                    "type": "uint256"
                },
                {
                    "internalType": "uint256",
                    "name": "maxRefPriceDeviationFactor",
                    "type": "uint256"
                }
            ],
            "name": "MaxRefPriceDeviationExceeded",
            "type": "error"
        },
        {
            "inputs": [
                {
                    "internalType": "address",
                    "name": "provider",
                    "type": "address"
                }
            ],
            "name": "NonAtomicOracleProvider",
            "type": "error"
        },
        {
            "inputs": [
                {
                    "internalType": "address",
                    "name": "token",
                    "type": "address"
                },
                {
                    "internalType": "uint256",
                    "name": "minPrice",
                    "type": "uint256"
                },
                {
                    "internalType": "uint256",
                    "name": "maxPrice",
                    "type": "uint256"
                }
            ],
            "name": "PriceAlreadySet",
            "type": "error"
        },
        {
            "inputs": [],
            "name": "SequencerDown",
            "type": "error"
        },
        {
            "inputs": [
                {
                    "internalType": "uint256",
                    "name": "timeSinceUp",
                    "type": "uint256"
                },
                {
                    "internalType": "uint256",
                    "name": "sequencerGraceDuration",
                    "type": "uint256"
                }
            ],
            "name": "SequencerGraceDurationNotYetPassed",
            "type": "error"
        },
        {
            "inputs": [
                {
                    "internalType": "address",
                    "name": "msgSender",
                    "type": "address"
                },
                {
                    "internalType": "string",
                    "name": "role",
                    "type": "string"
                }
            ],
            "name": "Unauthorized",
            "type": "error"
        },
        {
            "inputs": [],
            "name": "clearAllPrices",
            "outputs": [],
            "stateMutability": "nonpayable",
            "type": "function"
        },
        {
            "inputs": [],
            "name": "dataStore",
            "outputs": [
                {
                    "internalType": "contract DataStore",
                    "name": "",
                    "type": "address"
                }
            ],
            "stateMutability": "view",
            "type": "function"
        },
        {
            "inputs": [],
            "name": "eventEmitter",
            "outputs": [
                {
                    "internalType": "contract EventEmitter",
                    "name": "",
                    "type": "address"
                }
            ],
            "stateMutability": "view",
            "type": "function"
        },
        {
            "inputs": [
                {
                    "internalType": "address",
                    "name": "token",
                    "type": "address"
                }
            ],
            "name": "getPrimaryPrice",
            "outputs": [
                {
                    "components": [
                        {
                            "internalType": "uint256",
                            "name": "min",
                            "type": "uint256"
                        },
                        {
                            "internalType": "uint256",
                            "name": "max",
                            "type": "uint256"
                        }
                    ],
                    "internalType": "struct Price.Props",
                    "name": "",
                    "type": "tuple"
                }
            ],
            "stateMutability": "view",
            "type": "function"
        },
        {
            "inputs": [
                {
                    "internalType": "uint256",
                    "name": "start",
                    "type": "uint256"
                },
                {
                    "internalType": "uint256",
                    "name": "end",
                    "type": "uint256"
                }
            ],
            "name": "getTokensWithPrices",
            "outputs": [
                {
                    "internalType": "address[]",
                    "name": "",
                    "type": "address[]"
                }
            ],
            "stateMutability": "view",
            "type": "function"
        },
        {
            "inputs": [],
            "name": "getTokensWithPricesCount",
            "outputs": [
                {
                    "internalType": "uint256",
                    "name": "",
                    "type": "uint256"
                }
            ],
            "stateMutability": "view",
            "type": "function"
        },
        {
            "inputs": [],
            "name": "maxTimestamp",
            "outputs": [
                {
                    "internalType": "uint256",
                    "name": "",
                    "type": "uint256"
                }
            ],
            "stateMutability": "view",
            "type": "function"
        },
        {
            "inputs": [],
            "name": "minTimestamp",
            "outputs": [
                {
                    "internalType": "uint256",
                    "name": "",
                    "type": "uint256"
                }
            ],
            "stateMutability": "view",
            "type": "function"
        },
        {
            "inputs": [
                {
                    "internalType": "address",
                    "name": "",
                    "type": "address"
                }
            ],
            "name": "primaryPrices",
            "outputs": [
                {
                    "internalType": "uint256",
                    "name": "min",
                    "type": "uint256"
                },
                {
                    "internalType": "uint256",
                    "name": "max",
                    "type": "uint256"
                }
            ],
            "stateMutability": "view",
            "type": "function"
        },
        {
            "inputs": [],
            "name": "roleStore",
            "outputs": [
                {
                    "internalType": "contract RoleStore",
                    "name": "",
                    "type": "address"
                }
            ],
            "stateMutability": "view",
            "type": "function"
        },
        {
            "inputs": [],
            "name": "sequencerUptimeFeed",
            "outputs": [
                {
                    "internalType": "contract AggregatorV2V3Interface",
                    "name": "",
                    "type": "address"
                }
            ],
            "stateMutability": "view",
            "type": "function"
        },
        {
            "inputs": [
                {
                    "components": [
                        {
                            "internalType": "address[]",
                            "name": "tokens",
                            "type": "address[]"
                        },
                        {
                            "internalType": "address[]",
                            "name": "providers",
                            "type": "address[]"
                        },
                        {
                            "internalType": "bytes[]",
                            "name": "data",
                            "type": "bytes[]"
                        }
                    ],
                    "internalType": "struct OracleUtils.SetPricesParams",
                    "name": "params",
                    "type": "tuple"
                }
            ],
            "name": "setPrices",
            "outputs": [],
            "stateMutability": "nonpayable",
            "type": "function"
        },
        {
            "inputs": [
                {
                    "components": [
                        {
                            "internalType": "address[]",
                            "name": "tokens",
                            "type": "address[]"
                        },
                        {
                            "internalType": "address[]",
                            "name": "providers",
                            "type": "address[]"
                        },
                        {
                            "internalType": "bytes[]",
                            "name": "data",
                            "type": "bytes[]"
                        }
                    ],
                    "internalType": "struct OracleUtils.SetPricesParams",
                    "name": "params",
                    "type": "tuple"
                }
            ],
            "name": "setPricesForAtomicAction",
            "outputs": [],
            "stateMutability": "nonpayable",
            "type": "function"
        },
        {
            "inputs": [
                {
                    "internalType": "address",
                    "name": "token",
                    "type": "address"
                },
                {
                    "components": [
                        {
                            "internalType": "uint256",
                            "name": "min",
                            "type": "uint256"
                        },
                        {
                            "internalType": "uint256",
                            "name": "max",
                            "type": "uint256"
                        }
                    ],
                    "internalType": "struct Price.Props",
                    "name": "price",
                    "type": "tuple"
                }
            ],
            "name": "setPrimaryPrice",
            "outputs": [],
            "stateMutability": "nonpayable",
            "type": "function"
        },
        {
            "inputs": [
                {
                    "internalType": "uint256",
                    "name": "_minTimestamp",
                    "type": "uint256"
                },
                {
                    "internalType": "uint256",
                    "name": "_maxTimestamp",
                    "type": "uint256"
                }
            ],
            "name": "setTimestamps",
            "outputs": [],
            "stateMutability": "nonpayable",
            "type": "function"
        },
        {
            "inputs": [
                {
                    "components": [
                        {
                            "internalType": "address[]",
                            "name": "tokens",
                            "type": "address[]"
                        },
                        {
                            "internalType": "address[]",
                            "name": "providers",
                            "type": "address[]"
                        },
                        {
                            "internalType": "bytes[]",
                            "name": "data",
                            "type": "bytes[]"
                        }
                    ],
                    "internalType": "struct OracleUtils.SetPricesParams",
                    "name": "params",
                    "type": "tuple"
                },
                {
                    "internalType": "bool",
                    "name": "forAtomicAction",
                    "type": "bool"
                }
            ],
            "name": "validatePrices",
            "outputs": [
                {
                    "components": [
                        {
                            "internalType": "address",
                            "name": "token",
                            "type": "address"
                        },
                        {
                            "internalType": "uint256",
                            "name": "min",
                            "type": "uint256"
                        },
                        {
                            "internalType": "uint256",
                            "name": "max",
                            "type": "uint256"
                        },
                        {
                            "internalType": "uint256",
                            "name": "timestamp",
                            "type": "uint256"
                        },
                        {
                            "internalType": "address",
                            "name": "provider",
                            "type": "address"
                        }
                    ],
                    "internalType": "struct OracleUtils.ValidatedPrice[]",
                    "name": "",
                    "type": "tuple[]"
                }
            ],
            "stateMutability": "nonpayable",
            "type": "function"
        },
        {
            "inputs": [],
            "name": "validateSequencerUp",
            "outputs": [],
            "stateMutability": "view",
            "type": "function"
        }
    ],
    "bytecode": "0x6101006040523480156200001257600080fd5b506040516200324b3803806200324b833981016040819052620000359162000071565b6001600160a01b0393841660805291831660a052821660c0521660e052620000d9565b6001600160a01b03811681146200006e57600080fd5b50565b600080600080608085870312156200008857600080fd5b8451620000958162000058565b6020860151909450620000a88162000058565b6040860151909350620000bb8162000058565b6060860151909250620000ce8162000058565b939692955090935050565b60805160a05160c05160e0516130dd6200016e600039600081816102690152818161035d015261039001526000818161020d01526119410152600081816101a70152818161043c015281816108c1015281816109a101528181610ac501528181610b9f01528181610c6501528181610de301528181610ed701526110c601526000818161011c01526106d501526130dd6000f3fe608060405234801561001057600080fd5b50600436106100da5760003560e01c8062ccf155146100df578063070211e6146100e95780633d333c85146100f157806347cba33d146101045780634a4a7b041461011757806351b5107a146101545780635dcf719414610174578063660d0d67146101a257806371604245146101c95780637901828d146101e05780639364c21a146101e85780639ff78c3014610208578063a2bbd6041461022f578063a726470514610264578063c7a667f41461028b578063f002606b1461029e578063fa101977146102a7575b600080fd5b6100e76102ba565b005b6100e761035b565b6100e76100ff366004612324565b61055e565b6100e7610112366004612358565b61058c565b61013e7f000000000000000000000000000000000000000000000000000000000000000081565b60405161014b91906123cc565b60405180910390f35b6101676101623660046123e0565b6105a8565b60405161014b9190612402565b61018761018236600461244f565b6105bf565b6040805182518152602092830151928101929092520161014b565b61013e7f000000000000000000000000000000000000000000000000000000000000000081565b6101d260045481565b60405190815260200161014b565b6101d2610653565b6101fb6101f636600461247a565b610664565b60405161014b91906124cb565b61013e7f000000000000000000000000000000000000000000000000000000000000000081565b61025661023d36600461244f565b6002602052600090815260409020805460019091015482565b60405161014b929190612545565b61013e7f000000000000000000000000000000000000000000000000000000000000000081565b6100e7610299366004612324565b610682565b6101d260035481565b6100e76102b53660046123e0565b6106a1565b61030a6040516020016102cc90612553565b604051602081830303815290604052805190602001206040518060400160405280600a81526020016921a7a72a2927a62622a960b11b8152506106be565b6000610316600061076e565b905060005b8181101561034d57600061032f8180610778565b905061033a81610784565b50806103458161258d565b91505061031b565b505060006003819055600455565b7f00000000000000000000000000000000000000000000000000000000000000006001600160a01b031661038b57565b6000807f00000000000000000000000000000000000000000000000000000000000000006001600160a01b031663feaf968c6040518163ffffffff1660e01b815260040160a060405180830381865afa1580156103ec573d6000803e3d6000fd5b505050506040513d601f19601f8201168201806040525081019061041091906125c2565b5091945092505082159050806104385760405162032b3d60e81b815260040160405180910390fd5b60007f00000000000000000000000000000000000000000000000000000000000000006001600160a01b031663bd02d0f56040516020016104a59060208082526018908201527729a2a8aaa2a721a2a92fa3a920a1a2afa22aa920aa24a7a760411b604082015260600190565b604051602081830303815290604052805190602001206040518263ffffffff1660e01b81526004016104d991815260200190565b602060405180830381865afa1580156104f6573d6000803e3d6000fd5b505050506040513d601f19601f8201168201806040525081019061051a9190612612565b90506000610528844261262b565b905081811161055757808260405163113cfc0360e01b815260040161054e929190612545565b60405180910390fd5b5050505050565b6105706040516020016102cc90612553565b600061057d8260006107af565b905061058881610f6a565b5050565b61059e6040516020016102cc90612553565b61058882826111ec565b60606105b6600084846112b6565b90505b92915050565b60408051808201909152600080825260208201526001600160a01b0382166105fa575050604080518082019091526000808252602082015290565b6001600160a01b038216600090815260026020908152604091829020825180840190935280548352600101549082015261063381611385565b156105b9578260405163cd64a02560e01b815260040161054e91906123cc565b600061065f600061076e565b905090565b60606106786040516020016102cc90612553565b6105b683836107af565b6106946040516020016102cc90612553565b600061057d8260016107af565b6106b36040516020016102cc90612553565b600391909155600455565b60405163ac4ab3fb60e01b81526001600160a01b037f0000000000000000000000000000000000000000000000000000000000000000169063ac4ab3fb9061070c903390869060040161263e565b602060405180830381865afa158015610729573d6000803e3d6000fd5b505050506040513d601f19601f8201168201806040525081019061074d9190612657565b61058857338160405163a35b150b60e01b815260040161054e9291906126ba565b60006105b9825490565b60006105b6838361139a565b6001600160a01b038116600090815260026020526040812081815560010181905561058890826113c4565b602082015151825151606091146107e45782515160208401515160405163dd51dc7360e01b815261054e929190600401612545565b604083015151835151146108165782515160408085015151905163f9996e9f60e01b815261054e929190600401612545565b8251516000906001600160401b03811115610833576108336120b1565b6040519080825280602002602001820160405280156108a857816020015b6108956040518060a0016040528060006001600160a01b0316815260200160008152602001600081526020016000815260200160006001600160a01b031681525090565b8152602001906001900390816108515790505b508451519091506000036108bd5790506105b9565b60007f00000000000000000000000000000000000000000000000000000000000000006001600160a01b031663bd02d0f5604051602001610926906020808252601490820152734d41585f4f5241434c455f50524943455f41474560601b604082015260600190565b604051602081830303815290604052805190602001206040518263ffffffff1660e01b815260040161095a91815260200190565b602060405180830381865afa158015610977573d6000803e3d6000fd5b505050506040513d601f19601f8201168201806040525081019061099b9190612612565b905060007f00000000000000000000000000000000000000000000000000000000000000006001600160a01b031663bd02d0f5604051602001610a1d9060208082526025908201527f4d41585f4f5241434c455f5245465f50524943455f444556494154494f4e5f4660408201526420a1aa27a960d91b606082015260800190565b604051602081830303815290604052805190602001206040518263ffffffff1660e01b8152600401610a5191815260200190565b602060405180830381865afa158015610a6e573d6000803e3d6000fd5b505050506040513d601f19601f82011682018060405250810190610a929190612612565b905060005b865151811015610f5f57600087602001518281518110610ab957610ab96126de565b602002602001015190507f00000000000000000000000000000000000000000000000000000000000000006001600160a01b0316637ae1cfca610afb836113d9565b6040518263ffffffff1660e01b8152600401610b1991815260200190565b602060405180830381865afa158015610b36573d6000803e3d6000fd5b505050506040513d601f19601f82011682018060405250810190610b5a9190612657565b610b7957806040516302e8815160e11b815260040161054e91906123cc565b600088600001518381518110610b9157610b916126de565b6020026020010151905060007f00000000000000000000000000000000000000000000000000000000000000006001600160a01b0316637ae1cfca610bd585611463565b6040518263ffffffff1660e01b8152600401610bf391815260200190565b602060405180830381865afa158015610c10573d6000803e3d6000fd5b505050506040513d601f19601f82011682018060405250810190610c349190612657565b90508815610c615780610c5c57826040516353410c4360e01b815260040161054e91906123cc565b610d43565b60007f00000000000000000000000000000000000000000000000000000000000000006001600160a01b03166321f8a721610c9b856114a2565b6040518263ffffffff1660e01b8152600401610cb991815260200190565b602060405180830381865afa158015610cd6573d6000803e3d6000fd5b505050506040513d601f19601f82011682018060405250810190610cfa91906126f4565b9050806001600160a01b0316846001600160a01b031614610d4157604051631a2d279b60e21b81526001600160a01b0380861660048301528216602482015260440161054e565b505b60008a604001518581518110610d5b57610d5b6126de565b602002602001015190506000846001600160a01b031663377bbdaf85846040518363ffffffff1660e01b8152600401610d959291906126ba565b60a0604051808303816000875af1158015610db4573d6000803e3d6000fd5b505050506040513d601f19601f82011682018060405250810190610dd89190612711565b905082610e925760007f00000000000000000000000000000000000000000000000000000000000000006001600160a01b031663bd02d0f5610e1a88886114e1565b6040518263ffffffff1660e01b8152600401610e3891815260200190565b602060405180830381865afa158015610e55573d6000803e3d6000fd5b505050506040513d601f19601f82011682018060405250810190610e799190612612565b90508082606001818151610e8d919061262b565b905250505b42888260600151610ea3919061278f565b1015610eca57606081015142604051632b6e7c3f60e01b815260040161054e929190612545565b82610f2957600080610efc7f000000000000000000000000000000000000000000000000000000000000000087611578565b915091508115610f2657610f16868460200151838c6117a7565b610f26868460400151838c6117a7565b50505b80898781518110610f3c57610f3c6126de565b602002602001018190525050505050508080610f579061258d565b915050610a97565b509195945050505050565b8051600003610f765750565b610f80600061076e565b15610fcb576000610f91600061076e565b905060005b81811015610fc8576000610faa8180610778565b9050610fb581610784565b5080610fc08161258d565b915050610f96565b50505b600081600081518110610fe057610fe06126de565b6020026020010151606001519050600082600081518110611003576110036126de565b602002602001015160600151905060005b83518110156110c1576000848281518110611031576110316126de565b60200260200101519050611065816000015160405180604001604052808460200151815260200184604001518152506111ec565b838160600151101561107957806060015193505b828160600151111561108d57806060015192505b6110ae8160000151826020015183604001518460600151856080015161180c565b50806110b98161258d565b915050611014565b5060007f00000000000000000000000000000000000000000000000000000000000000006001600160a01b031663bd02d0f5604051602001611131906020808252601a90820152794d41585f4f5241434c455f54494d455354414d505f52414e474560301b604082015260600190565b604051602081830303815290604052805190602001206040518263ffffffff1660e01b815260040161116591815260200190565b602060405180830381865afa158015611182573d6000803e3d6000fd5b505050506040513d601f19601f820116820180604052508101906111a69190612612565b9050806111b3848461262b565b11156111df576111c3838361262b565b81604051636ece35cd60e11b815260040161054e929190612545565b5060039190915560045550565b60208101518151111561121d5780516020820151604051630b046a0d60e11b815261054e92859290916004016127a2565b6001600160a01b038216600090815260026020908152604091829020825180840190935280548352600101549082015261125681611385565b61127e5780516020820151604051636f684cef60e11b815261054e92869290916004016127a2565b6001600160a01b0383166000908152600260209081526040822084518155908401516001909101556112b090846119d6565b50505050565b606060006112c38561076e565b9050808311156112d1578092505b60006112dd858561262b565b6001600160401b038111156112f4576112f46120b1565b60405190808252806020026020018201604052801561131d578160200160208202803683370190505b509050845b84811015611379576113348782610778565b8261133f888461262b565b8151811061134f5761134f6126de565b6001600160a01b0390921660209283029190910190910152806113718161258d565b915050611322565b509150505b9392505050565b805160009015806105b9575050602001511590565b60008260000182815481106113b1576113b16126de565b9060005260206000200154905092915050565b60006105b6836001600160a01b0384166119eb565b6000604051602001611419906020808252601a90820152791254d7d3d49050d31157d41493d59251115497d153905093115160321b604082015260600190565b60408051601f198184030181528282528051602091820120908301526001600160a01b03841690820152606001604051602081830303815290604052805190602001209050919050565b60006040516020016114199060208082526019908201527824a9afa0aa27a6a4a1afa7a920a1a622afa82927ab24a222a960391b604082015260600190565b60006040516020016114199060208082526019908201527827a920a1a622afa82927ab24a222a92fa327a92faa27a5a2a760391b604082015260600190565b6000604051602001611522906020808252601b908201527a13d49050d31157d512535154d510535417d051129554d513515395602a1b604082015260600190565b60408051601f198184030181528282528051602091820120908301526001600160a01b03808616918301919091528316606082015260800160405160208183030381529060405280519060200120905092915050565b6000806000846001600160a01b03166321f8a72161159586611ade565b6040518263ffffffff1660e01b81526004016115b391815260200190565b602060405180830381865afa1580156115d0573d6000803e3d6000fd5b505050506040513d601f19601f820116820180604052508101906115f491906126f4565b90506001600160a01b0381166116115760008092509250506117a0565b6000819050600080826001600160a01b031663feaf968c6040518163ffffffff1660e01b815260040160a060405180830381865afa158015611657573d6000803e3d6000fd5b505050506040513d601f19601f8201168201806040525081019061167b91906125c2565b50935050925050600082136116a7578682604051635f328a5b60e11b815260040161054e92919061263e565b6000886001600160a01b031663bd02d0f56116c18a611b0e565b6040518263ffffffff1660e01b81526004016116df91815260200190565b602060405180830381865afa1580156116fc573d6000803e3d6000fd5b505050506040513d601f19601f820116820180604052508101906117209190612612565b90508142118015611739575080611737834261262b565b115b1561175d578782826040516306b5a95b60e51b815260040161054e939291906127a2565b600061176884611b51565b905060006117768b8b611ba7565b90506000611791838368327cb2734119d3b7a9601e1b611c46565b60019a50985050505050505050505b9250929050565b60006117b38484611c5b565b905060006117c18285611c7d565b90508281111561180457604051633d1986f760e01b81526001600160a01b038716600482015260248101869052604481018590526064810184905260840161054e565b505050505050565b611814611fc0565b8051611821906002611c8b565b6040805180820190915260058152643a37b5b2b760d91b6020820152815161184c9160009089611cf0565b604080518082019091526008815267383937bb34b232b960c11b6020820152815161187a9160019085611cf0565b602081015161188a906003611c8b565b6118c66000604051806040016040528060088152602001676d696e507269636560c01b815250878460200151611d4d909392919063ffffffff16565b6119026001604051806040016040528060088152602001676d6178507269636560c01b815250868460200151611d4d909392919063ffffffff16565b61193f600260405180604001604052806009815260200168074696d657374616d760bc1b815250858460200151611d4d909392919063ffffffff16565b7f00000000000000000000000000000000000000000000000000000000000000006001600160a01b03166324de01e461197e886001600160a01b031690565b836040518363ffffffff1660e01b815260040161199c929190612f5c565b600060405180830381600087803b1580156119b657600080fd5b505af11580156119ca573d6000803e3d6000fd5b50505050505050505050565b60006105b6836001600160a01b038416611da0565b60008181526001830160205260408120548015611ad4576000611a0f60018361262b565b8554909150600090611a239060019061262b565b9050818114611a88576000866000018281548110611a4357611a436126de565b9060005260206000200154905080876000018481548110611a6657611a666126de565b6000918252602080832090910192909255918252600188019052604090208390555b8554869080611a9957611a99613065565b6001900381819060005260206000200160009055905585600101600086815260200190815260200160002060009055600193505050506105b9565b60009150506105b9565b6000604051602001611419906020808252600a908201526914149250d157d191515160b21b604082015260600190565b6000604051602001611419906020808252601d908201527f50524943455f464545445f4845415254424541545f4455524154494f4e000000604082015260600190565b600080821215611ba35760405162461bcd60e51b815260206004820181905260248201527f53616665436173743a2076616c7565206d75737420626520706f736974697665604482015260640161054e565b5090565b600080836001600160a01b031663bd02d0f5611bc285611def565b6040518263ffffffff1660e01b8152600401611be091815260200190565b602060405180830381865afa158015611bfd573d6000803e3d6000fd5b505050506040513d601f19601f82011682018060405250810190611c219190612612565b9050806000036105b6578260405163b86fffef60e01b815260040161054e91906123cc565b6000611c53848484611e2a565b949350505050565b6000818311611c7357611c6e838361262b565b6105b6565b6105b6828461262b565b60006105b683836000611f14565b806001600160401b03811115611ca357611ca36120b1565b604051908082528060200260200182016040528015611ce957816020015b604080518082019091526060815260006020820152815260200190600190039081611cc15790505b5090915250565b8184600001518481518110611d0757611d076126de565b6020026020010151600001819052508084600001518481518110611d2d57611d2d6126de565b6020908102919091018101516001600160a01b0390921691015250505050565b8184600001518481518110611d6457611d646126de565b6020026020010151600001819052508084600001518481518110611d8a57611d8a6126de565b6020026020010151602001818152505050505050565b6000818152600183016020526040812054611de7575081546001818101845560008481526020808220909301849055845484825282860190935260409020919091556105b9565b5060006105b9565b600060405160200161141990602080825260159082015274282924a1a2afa322a2a22fa6aaa62a24a82624a2a960591b604082015260600190565b6000808060001985870985870292508281108382030391505080600003611e6457838281611e5a57611e5a61307b565b049250505061137e565b808411611eab5760405162461bcd60e51b81526020600482015260156024820152744d6174683a206d756c446976206f766572666c6f7760581b604482015260640161054e565b60008486880960026001871981018816978890046003810283188082028403028082028403028082028403028082028403028082028403029081029092039091026000889003889004909101858311909403939093029303949094049190911702949350505050565b600083600003611f265750600061137e565b8115611f4c57611f458468327cb2734119d3b7a9601e1b856001611f63565b905061137e565b611c538468327cb2734119d3b7a9601e1b85611e2a565b600080611f71868686611e2a565b90506001836002811115611f8757611f87613091565b148015611fa4575060008480611f9f57611f9f61307b565b868809115b15611fb757611fb460018261278f565b90505b95945050505050565b604080516101208101909152606060e0820181815261010083019190915281908152602001612002604051806040016040528060608152602001606081525090565b8152602001612024604051806040016040528060608152602001606081525090565b8152602001612046604051806040016040528060608152602001606081525090565b8152602001612068604051806040016040528060608152602001606081525090565b815260200161208a604051806040016040528060608152602001606081525090565b81526020016120ac604051806040016040528060608152602001606081525090565b905290565b634e487b7160e01b600052604160045260246000fd5b604051606081016001600160401b03811182821017156120e9576120e96120b1565b60405290565b604051601f8201601f191681016001600160401b0381118282101715612117576121176120b1565b604052919050565b60006001600160401b03821115612138576121386120b1565b5060051b60200190565b6001600160a01b038116811461215757600080fd5b50565b600082601f83011261216b57600080fd5b8135602061218061217b8361211f565b6120ef565b82815260059290921b8401810191818101908684111561219f57600080fd5b8286015b848110156121c35780356121b681612142565b83529183019183016121a3565b509695505050505050565b6000606082840312156121e057600080fd5b6121e86120c7565b905081356001600160401b038082111561220157600080fd5b61220d8583860161215a565b835260209150818401358181111561222457600080fd5b6122308682870161215a565b83850152506040808501358281111561224857600080fd5b8501601f808201881361225a57600080fd5b813561226861217b8261211f565b81815260059190911b8301860190868101908a83111561228757600080fd5b8785015b83811015612310578035888111156122a35760008081fd5b8601603f81018d136122b55760008081fd5b89810135898111156122c9576122c96120b1565b6122da818801601f19168c016120ef565b8181528e8a8385010111156122ef5760008081fd5b818a84018d83013760009181018c019190915284525091880191880161228b565b5080868a0152505050505050505092915050565b60006020828403121561233657600080fd5b81356001600160401b0381111561234c57600080fd5b611c53848285016121ce565b600080828403606081121561236c57600080fd5b833561237781612142565b92506040601f198201121561238b57600080fd5b50604080519081016001600160401b03811182821017156123ae576123ae6120b1565b60409081526020858101358352940135938101939093525092909150565b6001600160a01b0391909116815260200190565b600080604083850312156123f357600080fd5b50508035926020909101359150565b6020808252825182820181905260009190848201906040850190845b818110156124435783516001600160a01b03168352928401929184019160010161241e565b50909695505050505050565b60006020828403121561246157600080fd5b81356105b681612142565b801515811461215757600080fd5b6000806040838503121561248d57600080fd5b82356001600160401b038111156124a357600080fd5b6124af858286016121ce565b92505060208301356124c08161246c565b809150509250929050565b602080825282518282018190526000919060409081850190868401855b8281101561253857815180516001600160a01b0390811686528782015188870152868201518787015260608083015190870152608091820151169085015260a090930192908501906001016124e8565b5091979650505050505050565b918252602082015260400190565b6020808252600a908201526921a7a72a2927a62622a960b11b604082015260600190565b634e487b7160e01b600052601160045260246000fd5b60006001820161259f5761259f612577565b5060010190565b80516001600160501b03811681146125bd57600080fd5b919050565b600080600080600060a086880312156125da57600080fd5b6125e3866125a6565b9450602086015193506040860151925060608601519150612606608087016125a6565b90509295509295909350565b60006020828403121561262457600080fd5b5051919050565b818103818111156105b9576105b9612577565b6001600160a01b03929092168252602082015260400190565b60006020828403121561266957600080fd5b81516105b68161246c565b6000815180845260005b8181101561269a5760208185018101518683018201520161267e565b506000602082860101526020601f19601f83011685010191505092915050565b6001600160a01b0383168152604060208201819052600090611c5390830184612674565b634e487b7160e01b600052603260045260246000fd5b60006020828403121561270657600080fd5b81516105b681612142565b600060a0828403121561272357600080fd5b60405160a081016001600160401b0381118282101715612745576127456120b1565b604052825161275381612142565b80825250602083015160208201526040830151604082015260608301516060820152608083015161278381612142565b60808201529392505050565b808201808211156105b9576105b9612577565b6001600160a01b039390931683526020830191909152604082015260600190565b600081518084526020808501808196508360051b810191508286016000805b8681101561285e578385038a5282516040815181885261280482890182612674565b92890151888403898b01528051808552908a01938693508a0191505b808310156128495783516001600160a01b03168252928901926001929092019190890190612820565b509b88019b96505050918501916001016127e2565b509298975050505050505050565b60006040808401835182865281815180845260608801915060608160051b89010193506020808401935060005b828110156128e357898603605f19018452845180518888526128bd89890182612674565b918401516001600160a01b03169784019790975295509381019392810192600101612899565b50808801519550888503818a015250505050611fb781836127c3565b600081518084526020808501808196508360051b810191508286016000805b8681101561285e578385038a5282516040815181885261294082890182612674565b92890151888403898b01528051808552908a01938693508a0191505b8083101561297c578351825292890192600192909201919089019061295c565b509b88019b965050509185019160010161291e565b60006040808401835182865281815180845260608801915060608160051b89010193506020808401935060005b828110156129ff57898603605f19018452845180518888526129e289890182612674565b9184015197840197909752955093810193928101926001016129be565b50808801519550888503818a015250505050611fb781836128ff565b600081518084526020808501808196508360051b810191508286016000805b8681101561285e578385038a52825160408151818852612a5c82890182612674565b92890151888403898b01528051808552908a01938693508a0191505b80831015612a985783518252928901926001929092019190890190612a78565b509b88019b9650505091850191600101612a3a565b60006040808401835182865281815180845260608801915060608160051b89010193506020808401935060005b82811015612b1b57898603605f1901845284518051888852612afe89890182612674565b918401519784019790975295509381019392810192600101612ada565b50808801519550888503818a015250505050611fb78183612a1b565b600081518084526020808501808196508360051b810191508286016000805b8681101561285e578385038a52825160408151818852612b7882890182612674565b92890151888403898b01528051808552908a01938693508a0191505b80831015612bb657835115158252928901926001929092019190890190612b94565b509b88019b9650505091850191600101612b56565b60006040808401835182865281815180845260608801915060608160051b89010193506020808401935060005b82811015612c3b57898603605f1901845284518051888852612c1c89890182612674565b9184015115159784019790975295509381019392810192600101612bf8565b50808801519550888503818a015250505050611fb78183612b37565b60006040808401835182865281815180845260608801915060608160051b89010193506020808401935060005b82811015612b1b57898603605f1901845284518051888852612ca889890182612674565b918401519784019790975295509381019392810192600101612c84565b600081518084526020808501808196506005915083821b81018387016000805b87811015612d70578484038b52825160408151818752612d0782880182612674565b928a0151878403888c01528051808552908b019392508a83019150808a1b83018b01865b82811015612d5957601f19858303018452612d47828751612674565b958d0195938d01939150600101612d2b565b509e8b019e97505050938801935050600101612ce5565b50919998505050505050505050565b60006040808401835182865281815180845260608801915060608160051b89010193506020808401935060005b82811015612dfc57898603605f1901845284518051888852612dd089890182612674565b9184015188830389860152919050612de88183612674565b975050509381019392810192600101612dac565b50808801519550888503818a015250505050611fb78183612cc5565b600081518084526020808501808196506005915083821b81018387016000805b87811015612d70578484038b52825160408151818752612e5a82880182612674565b928a0151878403888c01528051808552908b019392508a83019150808a1b83018b01865b82811015612eac57601f19858303018452612e9a828751612674565b958d0195938d01939150600101612e7e565b509e8b019e97505050938801935050600101612e38565b60006040808401835182865281815180845260608801915060608160051b89010193506020808401935060005b82811015612f4057898603605f1901845284518051888852612f1489890182612674565b9184015188830389860152919050612f2c8183612674565b975050509381019392810192600101612ef0565b50808801519550888503818a015250505050611fb78183612e18565b6060815260116060820152704f7261636c65507269636555706461746560781b608082015282602082015260a060408201526000825160e060a0840152612fa761018084018261286c565b90506020840151609f19808584030160c0860152612fc58383612991565b925060408601519150808584030160e0860152612fe28383612aad565b92506060860151915080858403016101008601526130008383612bcb565b925060808601519150808584030161012086015261301e8383612c57565b925060a08601519150808584030161014086015261303c8383612d7f565b925060c0860151915080858403016101608601525061305b8282612ec3565b9695505050505050565b634e487b7160e01b600052603160045260246000fd5b634e487b7160e01b600052601260045260246000fd5b634e487b7160e01b600052602160045260246000fdfea2646970667358221220081adadeff6f8e5979a9cbcacc3c77e6ced74eafda6a718787147bccc5000eaf64736f6c63430008120033",
    "linkReferences": {},
    "deployedLinkReferences": {}
}